:020000040800F2
:10000000E04E0020C901000831280008391300081B
:100010006D270008A10A0008DF8500080000000025
:100020000000000000000000000000008D7B0008C0
:10003000F50E00080000000087040008A94400082D
:10004000E3010008E3010008E3010008E301000800
:10005000E3010008E3010008E3010008E3010008F0
:10006000E3010008E3010008E3010008E3010008E0
:10007000E3010008E3010008E3010008E3010008D0
:10008000E3010008E3010008E3010008E3010008C0
:10009000E3010008E3010008E3010008E3010008B0
:1000A000E3010008E3010008E3010008E3010008A0
:1000B000E3010008E3010008E3010008E301000890
:1000C000E3010008E3010008E3010008E301000880
:1000D000E3010008D18200083D830008E301000825
:1000E000E3010008E3010008E301000800F002F862
:1000F00000F05AF80AA090E8000C82448344AAF168
:100100000107DA4501D100F04FF8AFF2090EBAE865
:100110000F0013F0010F18BFFB1A43F0010318473B
:1001200058BD000078BD00000A444FF0000C10F8E4
:10013000013B13F0070408BF10F8014B1D1108BF65
:1001400010F8015B641E05D010F8016B641E01F805
:10015000016BF9D113F0080F1EBF10F8014BAD1C55
:100160000C1B09D16D1E58BF01F801CBFAD505E073
:1001700014F8016B01F8016B6D1EF9D59142D6D3CD
:10018000704700000023002400250026103A28BFF5
:1001900078C1FBD8520728BF30C148BF0B607047F9
:1001A0001FB51FBD10B510BD00F02EF91146FFF7A9
:1001B000F7FF08F071FE00F04CF903B4FFF7F2FF0F
:1001C00003BC08F08BFA0000094880470948004743
:1001D000FEE7FEE7FEE7FEE7FEE7FEE7FEE7FEE7F7
:1001E000FEE7FEE704480549054A064B7047000054
:1001F000DD7E0008ED000008E0480020E04E002011
:10020000E04A0020E04A002072B6704762B67047AC
:10021000EFF3108072B6704780F31088704730BFDC
:10022000704720BF7047B0FA80F0704790FAA0F096
:10023000B0FA80F0704790FAA0F07047704710B5A0
:100240004C1084EA530404D54042C1F1000138BF88
:10025000491E1B4204D55242C3F1000338BF5B1E46
:1002600000F047F814F0804F04D04042C1F1000183
:1002700038BF491E14F0004F04D05242C3F10003AE
:1002800038BF5B1E10BD10B5203AC0F00B80B1E83E
:100290001850203AA0E81850B1E81850A0E81850BB
:1002A000BFF4F5AF5FEA027C24BFB1E81850A0E8C4
:1002B000185044BF18C918C0BDE810405FEA827CDE
:1002C00024BF51F8043B40F8043B08BF7047D207F5
:1002D00028BF31F8023B48BF11F8012B28BF20F896
:1002E000023B48BF00F8012B7047704770477047CA
:1002F000704753EA020C00F069802DE9F04B4FF093
:100300000006002B1FBFB3FA83F503FA05F424FAA5
:1003100005F65E4012BF1643B2FA82F502FA05F402
:10032000C5F120051EBF22FA05FC44EA0C04203565
:1003300056EA044C4FEA144418BF641C4FF00008FE
:100340004FF00009904271EB030C39D3002919BF1B
:10035000B1FA81F701FA07F6B0FA80F700FA07F66A
:10036000C7F120071EBF20FA07FC46EA0C0620371B
:10037000B6FBF4FCA7EB0507103F07F01F0BCBF112
:1003800020060CFA0BFB2CFA06F644BFB3460026F7
:10039000202FA4BF5E464FF0000B5BEA060C08BF9F
:1003A0004FF0010B19EB0B09ABFB027C48EB060885
:1003B000C01B06FB02CC0BFB03CC71EB0C01C1E7AD
:1003C0000B46024641464846BDE8F08B13B54FF058
:1003D00000004FF00001AFF30080BDE81C40704703
:1003E00010B500F009F8006810BD10B5044600F023
:1003F00003F8046010BD00000048704780480020EA
:1004000000487047804800207546FFF7F9FFAE4668
:1004100005006946534620F00700854618B020B510
:10042000FFF7E0FEBDE820404FF000064FF0000768
:100430004FF000084FF0000B21F00701AC46ACE88C
:10044000C009ACE8C009ACE8C009ACE8C0098D46F9
:10045000704710B50446AFF300802046BDE8104059
:10046000FFF7ABBE18484FF0FF010170002080F38A
:1004700009881648016881F3088815484FF08051B3
:10048000016062B6FEE772B6EFF3098028B120384A
:1004900080E8F00F0F490968086000B50E488047F2
:1004A0005DF804EB0D480E490A78027009480D49C1
:1004B0000A680260106890E8F00F203080F3098825
:1004C0004EF0040E62B6704722ED00E02C010020D1
:1004D00004ED00E0240100205D420008B20000208D
:1004E000B3000020280100208AB000F0DBFA00F001
:1004F0001FF904465D480068B4FBF0F5284603F098
:10050000F3FF02F03EF909A803F03EF900F038FBD2
:1005100000F016F909AB002255A1594802F080FEFF
:1005200009A8032100220592CDE9062108900520A3
:100530004FF400713322534BCDE90132CDE9031062
:100540000B200023504A51A10090554803F0A6F912
:1005500009A8032100220592CDE906210890052073
:100560004FF4807119224F4BCDE90132CDE90310D0
:100570000F2000234C4A4DA10090504803F08EF903
:1005800009A8032100220592CDE906210890052043
:1005900080210C224A4BCDE90132CDE903100A201B
:1005A0000023484A48A100904B4803F077F909A876
:1005B000032100220592CDE90621089005204FF481
:1005C00000713322454BCDE90132CDE903100620FD
:1005D0000023434A43A10090484803F05FF909A86B
:1005E000032100220592CDE90621089005204FF451
:1005F00080711922424BCDE90132CDE90310072069
:100600000023404A40A10090444803F047F909A95B
:10061000434803F099FA27E04FF48071414800F015
:1006200022FD28B14FF480713E4800F025FD04E022
:100630004FF480713B4800F021FD642008F09EFBE0
:10064000102339A20021282002F010FB102336A22B
:100650001946282002F00AFB102333A2202128206B
:1006600002F004FB02F00CFAD6E70000F0A3000849
:100670006D73353833372075702064617465000000
:10068000D4220020D40C0020750E0008436F6E7435
:10069000726F6C205461736B20537461727400002C
:1006A000B4030020D4080020CD2C00084F4C454452
:1006B000205461736B20537461727400EC0200204B
:1006C000D4140020291D00084C4544205461736B4C
:1006D00020537461727400007C040020D416002042
:1006E000ED070008426C7565546F6F7468205461A3
:1006F000736B205374617274000000004405002085
:10070000D41E00200D2600084D53353833372054B1
:1007100061736B2053746172740000000C0600203A
:1007200024020020000C01405741524E494E470020
:1007300000B585B0684607F08DF8019805B000BD9A
:1007400010B501F0E1FA002406E0FF221146104640
:1007500007F0AEF9601CC4B2082CF6DB002406E0FA
:1007600000221146104607F0B1F9601CC4B2182CE3
:10077000F6DB4FF4A06002F095F84FF4165008F045
:10078000EDFB4FF4E13008F039FC08F0BFFA02F05D
:10079000DFF801F01BFC00F09BFC01F0E3FE06F02B
:1007A000EDFE01F015FBC8231A461946184602F063
:1007B0001BF8C8200C4908800B490C31088041F215
:1007C000883008F0DBFA96231A461946184602F0DC
:1007D0000BF896200449088003490C3108804FF437
:1007E0007A6008F0CBFA10BD342C01401CB527E12B
:1007F0009448008800F4004000284DD092480078CA
:100800006D280DD19148007808B9012000E0002042
:100810008E49087096231A461946184601F0E4FFDF
:1008200089480078702807D189480068894908609C
:10083000874840688849086083480078672816D14F
:100840008648007808B9012000E00020834908703C
:1008500000208349087083490870834800888349D1
:10086000086096208249088081490C3108807648CA
:100870000078612804D17D480068801C7B490860AD
:1008800071480078622804D178480068801E774952
:10089000086000206B4908806A48408800F40040E6
:1008A000002876D073484078303864214843714935
:1008B0008978303901EB810100EB41016D48C07846
:1008C0003038084400B26C4908806A4840793038B2
:1008D0006421484367498979303901EB810100EB94
:1008E00041016448C0793038084400B26349088047
:1008F0006148008848B90846008830B9012060493D
:100900000870B4205D49088002E000205C4908704E
:100910005948B0F9000009F0E5FA0646062201A997
:1009200007F0AAF95548B0F9000009F0DBFA0646CD
:100930000622694607F0E8F95249009809F03AFCA6
:1009400000905049019809F035FC01904E490198FA
:1009500009F0F4FB04D94D49019809F0EFFA01D8E8
:100960001E2503E0019809F0A1FA054646490198C1
:1009700009F0E4FB0ED8284609F0B4FA07460099BE
:1009800009F030F9064609F091FA00B23B490880B7
:1009900023E052E03D49019809F0D0FA0DD82846ED
:1009A00009F0A0FA0746009909F0F9FB064609F09C
:1009B0007DFA00B2314908800FE0052095FBF0F880
:1009C000404609F08FFA0746009909F00BF90646F0
:1009D00009F06CFA00B22949088020480078012803
:1009E00028D12648B0F9000009F07CFA06463246C4
:1009F0002749284806F076FD274882682548416B3C
:100A0000264806F06FFD2549486B09F04FFA04B2FD
:100A10001E2C01DD1E2404E014F11E0F01DA6FF01C
:100A20001D04C4F18C001249088004F18C001049A7
:100A30000C3108800020034948800A2008F09EF904
:100A4000D6E6000020020020584800202D0000209B
:100A5000C44700205C010020600100202C00002021
:100A600030000020310000203200002074010020FE
:100A7000342C01404C420020280000202A00002095
:100A80002F0000200000B4420000A0410000A0C1DF
:100A90000000C8C120410020D04700205C41002058
:100AA00000BFFEE710B500F0FBF800F003F800F01F
:100AB000F3F810BD70B500260020184908801849C9
:100AC00008801849086018490860184908601849E2
:100AD000086018490860002400BFFFF799FB06462C
:100AE00000BF00250BE000201049086000F074F8FA
:100AF00000F08CF80D4800680444681C85B2002D95
:100B0000F1D00C48046000200849086008490860DA
:100B100000BF3046FFF780FB00BF70BD40000020E3
:100B20004200002044000020480000205000002027
:100B3000540000204C00002001460846044A126878
:100B4000904203D9024A1268801A00E000207047E0
:100B50004C00002070B5002500BFFFF759FB05468B
:100B600000BF0648046800BF2846FFF755FB00BFDA
:100B70002046FFF7E1FF0646304670BD50000020DA
:100B800070B50025FFF7E6FF044600BFFFF740FB06
:100B9000054600BF00200449086000BF2846FFF753
:100BA0003BFB00BF204670BD5000002070B5002503
:100BB00000BFFFF72DFB054600BF0648046800BFD5
:100BC0002846FFF729FB00BF2046FFF7B5FF064682
:100BD000304670BD5400002010B509480088401C04
:100BE000074908800748008818B900F083F80649CB
:100BF000086004480088401C0249088010BD0000BD
:100C000040000020420000204400002010B50F48A2
:100C10000088401E0D49088008460088A0B900F0F1
:100C200069F80B490860084600680A490968441ACF
:100C300009480068A04201D20748046007480068DC
:100C4000A04201D20548046010BD0000420000200F
:100C500048000020440000205000002054000020E4
:100C600010B5002400BF00BFFFF7D2FA044600BF52
:100C7000FFF7B2FF00BF1021064801F079FD00BF69
:100C8000FFF7C4FF00BF2046FFF7C6FA00BF00BF52
:100C900010BD0000FC22002010B5FFF7E1FF10BDE1
:100CA00010B500200249086000F00AF810BD0000ED
:100CB0003C00002001490860704700003C00002013
:100CC00010B50A48006840F08070084908600020AC
:100CD000074948600846006840F001000860FFF7D7
:100CE00027FD04462046FFF7E5FF10BDFCED00E0C0
:100CF000001000E00148406870470000001000E06C
:100D00002DE9F04385B0044689462068019060686B
:100D100002904B48019A01684A4806F0E3FB4A48B2
:100D2000029A0168494806F0DDFB04A800234FF44D
:100D3000004219460090464802F0E4FABDF810005F
:100D400070B94448006809F0CDF80546424800688B
:100D500009F0C8F806462A463146404806F0C2FB6C
:100D60003848406B80F000473848416B384608F0FF
:100D700039FF06463948416B304609F01BFA0546F3
:100D8000374908F02FFF374908602E48406B80F044
:100D900000462E48416B304609F00CFA05462F48B4
:100DA000416B284609F006FA07462D4908F01AFF5C
:100DB0002D4908602348406B80F000472348416B71
:100DC000384609F0F7F906462448416B304608F0EA
:100DD00009FF0546224908F005FF244908601B4A1F
:100DE000516B184A506B09F0E5F906461B48416BF8
:100DF000304609F0DFF90546194908F0F3FE1C49B1
:100E000008600846006809F051F805B21748006804
:100E100009F04CF806B21448006809F047F807B228
:100E20001048006809F042F80FFA80F82B46324665
:100E30003946404601F0D8FC05B0BDE8F08300001B
:100E40005C0100209841002060010020D441002076
:100E5000D4220020E0010020740100201042002074
:100E60000000164364010020680100206C0100208E
:100E700070010020164800881649086026E006F038
:100E8000C9FB154A1549164800F0DCFB15480078E7
:100E900050B911480068144908600F484068134968
:100EA000086001200F49087011480078012804D11A
:100EB0000B490948FFF724FF05E096231A46194617
:100EC000184601F091FC0A2007F058FFD7E7000010
:100ED0003200002074010020C4470020E8470020B1
:100EE000D0470020380000205C0100206001002075
:100EF0002D00002070472DE9F04105460C461646AE
:100F000055F824701BE000E0761EB44205DA55F86F
:100F10002600394609F012F9F6D955F8260045F8A9
:100F2000240000E0641CB44205DA55F82400394678
:100F300009F004F8F6D955F8240045F82600B44223
:100F4000E1DB45F82470204608F0CCFFBDE8F081D5
:100F50002DE9F04102460025002600200023002450
:100F6000002791F803C00CF00F0591F803C00CF0B6
:100F7000100CBCF1000F03D091F802C04CEA05053B
:100F800091F800C0BCF1000F31D0146800202BE0B4
:100F90004FF0010C0CFA00F3B1F800C00CEA0306A4
:100FA0009E4220D183004FF00F0C0CFA03F7BC4394
:100FB00005FA03FC4CEA040491F803C0BCF1280FC5
:100FC00006D14FF0010C0CFA00FCC2F814C00AE084
:100FD00091F803C0BCF1480F05D14FF0010C0CFA99
:100FE00000FCC2F810C0401C0828D1D31460B1F82E
:100FF00000C0BCF1FF0F34DD546800202EE000F18A
:10100000080C4FF0010808FA0CF3B1F800C00CEA24
:1010100003069E4221D183004FF00F0C0CFA03F718
:10102000BC4305FA03FC4CEA040491F803C0BCF18C
:10103000280F05D100F1080C08FA0CF8C2F814804A
:1010400091F803C0BCF1480F07D100F1080C4FF034
:10105000010808FA0CF8C2F81080401C0828CED30A
:101060005460BDE8F08102460020D3680B400BB10C
:10107000012000E000207047416170470161704726
:1010800010B500200F4908600F48006820F4704038
:101090000D4908600846006840F440500860002090
:1010A0000A49C1F8AC01052007F0A2FE012005495C
:1010B0000860052007F09CFE00200449C1F8A80143
:1010C00010BD0000A8812142040C01400080214293
:1010D00008B50121082006F09DFB4FF44060ADF8F3
:1010E000000010208DF8030003208DF802006946EF
:1010F0000448FFF72DFF0120034908600349C1F8A8
:10110000AC0108BD000C0140A881214200802142B1
:1011100010B500200F4908600F48006820F47040A7
:101120000D4908600846006840F4405008600120FE
:101130000A49C1F8AC01052007F05AFE0120054913
:101140000860052007F054FE00200449C1F8A801FA
:1011500010BD0000A8812142040C01400080214202
:1011600070B5054600241748006820F47040154902
:1011700008600846006840F400400860002616E059
:10118000002011490860052007F032FE01200F49B8
:10119000C1F8A8016006040E0B487C38006808B14D
:1011A000601CC4B2052007F023FE701CC6B2082ED6
:1011B000E6DB15B9FFF7ACFF01E0FFF761FF204662
:1011C00070BD0000040C0140A88121420080214232
:1011D00070B504461548006820F470401349086053
:1011E0000846006840F4405008600020104908603C
:1011F000002517E0E0090E49091D08606006040E8D
:10120000052007F0F5FD01200A49C1F8A8010520D5
:1012100007F0EEFD002006490860052007F0E8FD14
:10122000681CC5B2082DE5DB70BD0000040C014050
:10123000A88121420080214210B50F48006820F4A7
:1012400070400D4908600846006840F4405008604E
:1012500001200A4908600A49C1F8A801052007F0E1
:10126000C7FD002005490860052007F0C1FD0020EA
:101270000349C1F8A80110BD040C0140AC81214212
:101280000080214210B50F48006820F470400D49DD
:1012900008600846006840F44050086000200A4991
:1012A00008600A49C1F8AC01052007F0A1FD012042
:1012B000054908600549C1F8AC01052007F098FD13
:1012C00010BD0000040C0140A88121420080214291
:1012D00010B500241548006820F4704013490860D8
:1012E0000846006840F4004008600120104908608A
:1012F000052007F07DFD01200E49C1F8A801052059
:1013000007F076FD07E0601CC4B2FA2C03DDFFF79E
:10131000B9FF012010BD0648803800680028F2D1CE
:101320000349091F086000BFF4E70000040C0140F6
:10133000AC8121420080214200BFFEE710B5202091
:101340000A49086006F00CFC4020084908600120AA
:1013500007F04EFD20200549091F0860022007F014
:1013600047FD20200149086010BD0000140C014019
:1013700008B50121082006F04DFA6020ADF8000004
:1013800010208DF8030003208DF802006946044800
:10139000FFF7DEFD60210248FFF770FE08BD000088
:1013A000000C014010B520200A49086006F0D8FB67
:1013B00040200849091F0860012007F019FD20207E
:1013C0000449091F0860012007F012FD202001498F
:1013D000086010BD140C014070B50546002406F0ED
:1013E000ADFB002618E0202010490860012007F01E
:1013F000FFFC20200D49091F08606006040E0B4801
:101400000C380068C0F3801008B1601CC4B2012021
:1014100007F0EEFC701CC6B2082EE4DB15B1FFF736
:101420008DFF01E0FFF7BEFF204670BD140C0140A8
:1014300070B504460D46164600F086F8204600F0CA
:1014400055F800F0B3F818B100F098F8012070BD1D
:10145000284600F04BF800F0A9F800F075F8611C80
:10146000C8B200F043F800F0A1F80020FFF7B4FF85
:10147000307000F083F80020E9E72DE9F0470646D8
:101480000F4615469846002400F05EF8304600F0FE
:101490002DF800F08BF820B100F070F80120BDE8C5
:1014A000F087384600F022F800F080F800F04CF8A1
:1014B000711CC8B200F01AF800F078F800240FE0B0
:1014C000681EA04204D00120FFF786FF814603E09A
:1014D0000020FFF781FF814608F80490601CC4B229
:1014E000AC42EDDB00F04AF80020D8E770B50446C6
:1014F00006F036FB20201349086000251EE004F0AA
:10150000800020B140200F49091F086002E0402000
:101510000C4908606006040E012007F069FC2020D9
:101520000849091F0860012007F062FC20200549D6
:101530000860012007F05CFC681CC5B2082DDEDBEA
:1015400070BD0000140C014010B506F009FB4020EE
:101550000949086020200860042007F049FC402069
:101560000549091D0860042007F042FC20200249BB
:10157000091D086010BD0000100C014010B506F0F8
:10158000EFFA20200849086040200860042007F096
:101590002FFC20200449091F086040200860042017
:1015A00007F026FC10BD0000140C014010B500240B
:1015B00006F0C4FA402010490860012007F018FC2A
:1015C00020200D490860012007F012FC07E0601C94
:1015D000C4B2FA2C03DDFFF7D1FF012010BD06488D
:1015E00008380068C0F380100028F0D1202002499C
:1015F000091D08600020F1E7100C014070B5064697
:101600000C461546FFF7A0FF3046FFF76FFFFFF7C8
:10161000CDFF18B1FFF7B2FF012070BD2046FFF7E4
:1016200065FFFFF7C3FF2846FFF760FFFFF7BEFF28
:1016300018B1FFF7A3FF0120EFE7FFF79FFF00209E
:10164000EBE7000007B5AEB02422FE4923A8FEF761
:101650001AFE2F98006822902F98406821902F98AA
:10166000806820902E9800681F902E9840681E90E9
:101670002E9880681D90F4480168006808F092FC7C
:101680001590F2480168F048006808F08BFC14904F
:10169000EF480168EC48006808F084FC1390ED48BE
:1016A0000168E948006808F07DFC1290E74801688D
:1016B000006808F077FC1190E5480168E34800688D
:1016C00008F070FC1090E3480168E048006808F0FA
:1016D00069FC0F90DE480168006808F063FC0E901A
:1016E000DC480168DA48006808F05CFC0D90D948D5
:1016F0000168006808F056FC0C90DDE9211008F044
:1017000051FC0A90209908F04DFC00210B9008F044
:1017100099FB01D131B000BD2099084608F042FC88
:101720000A902199084608F03DFC08902299084645
:1017300008F038FC0790089908F054FA09900A99C3
:1017400008F050FA0B9007F081FB1690169922983A
:1017500008F028FC22901699219808F023FC21908B
:101760001699209808F01EFC209013990F9808F005
:1017700021FD4FF080410B9008F014FC1C900D9956
:10178000149808F02FFA4FF080410B9008F00AFCF3
:101790001B901199159808F00DFD0A900E9908F00C
:1017A00009FD0B900C9908F01DFA1A901B992098CE
:1017B00008F0F8FB0B901A99219808F0F3FB0A90B7
:1017C0000B9908F0F7FC19901A99229808F0EAFB97
:1017D0000B901C99209808F0E5FB0A900B9908F0F3
:1017E000E9FC18901C99219808F0DCFB0B901B99E0
:1017F000229808F0D7FB0A900B9908F0DBFC1790B1
:101800009549199808F0CEFB0B90944801680B9805
:1018100008F0E8F9914908608F49189808F0C2FB70
:101820000B908F4801680B9808F0DCF98C49086030
:101830008949179808F0B6FB0B908A4801680B9805
:1018400008F0D0F9874908608748199908F0AAFB81
:101850000A901F9908F0C6F90B90804801680B9810
:1018600008F0C0F91F908048189908F09BFB0A9077
:101870001E9908F0B7F90B90794801680B9808F0A9
:10188000B1F91E907848179908F08CFB0A901D99C1
:1018900008F0A8F90B90734801680B9808F0A2F9BA
:1018A0001D906C481D99006808F07CFB0990684801
:1018B0001E99006808F076FB07906448006880F085
:1018C000004005901F9908F06DFB0690079908F0FD
:1018D00071FC0890099908F06DFC64490A9008F0C1
:1018E00061FB0B90584801680B9808F07BF956494A
:1018F000086058481E99006808F054FB0990544845
:101900001D99006808F04EFB07904F481F9900682A
:1019100008F048FB0690079908F064F908900999C7
:1019200008F048FC51490A9008F03CFB0B904748EE
:1019300001680B9808F056F94449086045481F991A
:10194000006808F02FFB099040481D99006808F0D6
:1019500029FB07903C481E99006808F023FB06907D
:10196000079908F027FC0890099908F03BF93F49CE
:101970000A9008F017FB0B90354801680B9808F0A7
:1019800031F93349086032481F99006808F00AFBB2
:1019900009902E481E99006808F004FB07902A4819
:1019A0001D99006808F0FEFA0690079908F01AF9E8
:1019B0000890099908F0FEFB2C490A9008F0F2FA09
:1019C0000B90244801680B9808F00CF92149086035
:1019D00008460168006808F0E5FA0A901C480168AA
:1019E000006808F0DFFA089018480168006808F0FD
:1019F000D9FA069014480168006808F0D3FA0590F7
:101A0000069908F0EFF80790089908F0EBF80990AC
:101A10000A9908F0E7F80B9007F018FA16900A48B0
:101A20001699006808F0BEFA074908600748169939
:101A3000006808F0B7FA054908600548169900687B
:101A400016E0000060BD00088C010020900100201D
:101A50009401002098010020CDCC4C3D9C01002039
:101A6000A0010020A401002000002040CDCCCC3CEF
:101A700008F098FA8249086082481699006808F0D0
:101A800091FA804908601199159808F0ABF80A900E
:101A90000E9908F08FFB0B900C9908F08BFB2390AC
:101AA0001299109808F09EF84FF080410B9008F0C2
:101AB00079FA249013990F9808F07CFB4FF080413D
:101AC0000B9008F06FFA25901299109808F072FBAD
:101AD0004FF080410B9008F065FA26901199159807
:101AE00008F068FB0A900E9908F07CF80B900C99AE
:101AF00008F060FB279014990D9808F073F84FF0E8
:101B000080410B9008F04EFA289013990F9808F036
:101B100069F84FF080410B9008F044FA299014992D
:101B20000D9808F047FB4FF080410B9008F03AFA0F
:101B30002A901199159808F03DFB0A900E9908F02B
:101B400039FB0B900C9908F04DF82B9011991598D2
:101B500008F048F801900E9908F02CFB02900C99BF
:101B600008F028FB039008F011F8CDE9060112995E
:101B7000109808F037F84FF08041029008F012FA00
:101B8000039008F003F8CDE90401DDE9062306F02F
:101B9000EFFF4FF0C0423C4BCDE9080107F01CFDC0
:101BA000CDE90A0107F07EFA3099886013990F9801
:101BB00008F000FB4FF08041049008F0F3F9059025
:101BC00007F0E4FFCDE9060106F08AFD81F000414F
:101BD0004FF0C0422C4BCDE9080107F0FDFCCDE9E8
:101BE0000A0107F05FFA309908601199159808F01A
:101BF000E1FA01900E9908F0DDFA02900C9907F0D5
:101C0000F1FF039007F0C2FFCDE906014FF08040DD
:101C1000149908F0C7F902904FF080400D9908F030
:101C2000C1F90190029907F0DDFF039007F0AEFFC4
:101C3000CDE90401DDE9062306F09AFF81F00041B9
:101C40004FF0C042104BCDE9080107F0C5FCCDE9CB
:101C50000A0107F027FA3099486000202C900AE02A
:101C600023A92C9851F82010084A42F820102C98EB
:101C7000401CC0B22C902C980928F1DB00BF49E52C
:101C8000940100209801002066A64C4018480020CE
:101C900008B50121102005F0BDFD4FF48070ADF8AE
:101CA000000010208DF8030003208DF80200694623
:101CB0001348FFF74DF90121082005F0ABFD4FF463
:101CC0000070ADF8000069460D48FFF741F90121A9
:101CD000042005F09FFD4FF48050ADF800006946E8
:101CE0000848FFF735F90121042005F093FD202075
:101CF000ADF8000069460348FFF72AF908BD000067
:101D0000000C01400008014010B5FFF7C1FF4FF47F
:101D100080710448FFF7B2F94FF400710148FFF7F2
:101D2000ADF910BD000C0140002442E0681CC5B2B2
:101D300020480078012804D11F480078401C1E4923
:101D400008701D4800780A2802DB01201B49087032
:101D50001B48407A3038C4B21A48007820BB012DA5
:101D600022DB012C06D11848007818B96102174807
:101D7000FFF782F9012C07D113480078012803D11D
:101D800041021248FFF778F9012C08D10E4800787B
:101D9000022804D101020D48FFF76EF904E04FF468
:101DA00000710A48FFF76AF900254FF4FA7006F04F
:101DB000E5FFBBE72C0000203100002030000020B0
:101DC0004C4200202F0000202E000020000C01407B
:101DD00000B589B001210D2005F01CFD0121C802CC
:101DE00005F018FD0121032005F0F4FC40F6C310B6
:101DF000ADF8200018208DF8230003208DF8220074
:101E000008A95948FFF7A4F80320ADF820001820CE
:101E10008DF8230003208DF8220008A95348FFF70E
:101E200097F840F2CF70ADF8180040F2CF20ADF82F
:101E300014000020ADF81600ADF81A008DF81C0053
:101E400005A94B4806F0F2F96020ADF80400012026
:101E5000ADF806000420ADF808000020ADF80A0037
:101E6000ADF80C00ADF80E00ADF81000ADF81200A2
:101E700001A93F4806F07EF808213D4806F0C6F863
:101E800001A93B4806F086F90821394806F0C0F957
:101E90000121374806F052F80121354806F05AF87A
:101EA00040F2CF70ADF8180040F2CF20ADF814002A
:101EB0000020ADF81600ADF81A0005A92D4806F06F
:101EC000B5F96020ADF804000020ADF80A00ADF8C7
:101ED0000C000120ADF8060001A9264806F04AF8DA
:101EE0000821244806F092F86020ADF80400002094
:101EF000ADF80A00ADF80C000120ADF8060001A90C
:101F00001C4806F08DF808211A4806F0DBF860201E
:101F1000ADF804000020ADF80A00ADF80C00012077
:101F2000ADF8060001A9134806F0DAF808211148B7
:101F300006F026F96020ADF804000020ADF80A0094
:101F4000ADF80C000120ADF8060001A9094806F023
:101F500021F90821074806F05BF90121054805F041
:101F6000EDFF09B000BD000000080140000C014079
:101F7000002C01400004004010B515E010230DA214
:101F800019460A2000F072FE00F07AFD322006F0B9
:101F9000F5FE10230AA219460A2000F067FE00F0A1
:101FA0006FFD322006F0EAFE00F061F90028E5D06E
:101FB00010BD00004E6F5F4D50553630353000007B
:101FC00020202020202020202020000010B5FFF716
:101FD000CFF9FFF7D1FF80216B2000F033F96420A7
:101FE00006F0CCFE01216B2000F02CF900213820F6
:101FF00000F028F918211B2000F024F908211C20EA
:1020000000F020F904211A2000F01CF90021192009
:1020100000F018F90221372000F014F910BD00007B
:102020000FB52B480088A0B90020ADF80000ADF82E
:102030000200ADF8040027490860274908602749D5
:102040000860012022490880002300201080508071
:102050009080BDF900001F49096808441D490860C7
:10206000BDF902001C49096808441B490860BDF914
:102070000400C01A1949096808441849086014483E
:102080000088C8281DD1134800681149098890FBB1
:10209000F1F000B21080104800680D49098890FBEB
:1020A000F1F000B250800D4800680949098890FBA2
:1020B000F1F000B29080002005490880012004B0B2
:1020C00000BD03480088401C014908800020F6E755
:1020D000580100204C010020500100205401002034
:1020E0000CB53F4840783E49097840EA01203D4917
:1020F0000988401A00B23C4908803948C0783849FC
:10210000897840EA012037494988401A00B23649A7
:102110004880334840793249097940EA0120314901
:102120008988401A00B2304988802D48407A2C496D
:10213000097A40EA01202D490988401A00B22C4949
:1021400008802748C07A2649897A40EA0120274931
:102150004988401A00B2264948802148407B2049DE
:10216000097B40EA012021498988401A00B22049B0
:1021700088802048007800F00100B8B10846016866
:1021800000918088ADF804000023184ADDE90001C1
:10219000FFF746FF50B11748007820F001001549BD
:1021A00008700846007840F0020008701148007876
:1021B000C0F3400098B10C48016800918088ADF8E8
:1021C000040042F20403074ADDE90001FFF728FF9B
:1021D00028B10848007820F00200064908700CBDBC
:1021E00010410020360100203C0100203001002079
:1021F000420100204801002010B5034A0E213B2077
:1022000000F011F810BD00001041002070B5044628
:102210000D462A462146D020FFF70AF908B10120D1
:1022200070BD0020FCE770B504460D4616463346E7
:102230002A462146D020FFF720F908B1012070BDC1
:102240000020FCE770B504460D462A462146D02002
:10225000FFF7D4F908B1012070BD0020FCE708B5F4
:1022600069467520FFF7D2FF9DF8000008BD10B544
:10227000FFF7F5FF682801D1012010BD0020FCE721
:1022800038B504460025FEF7D7FFEC20FEF7A0FF87
:10229000FFF71EF82046FEF79BFFFFF719F8FEF741
:1022A000F1FF0A2006F06AFDFEF7C6FFEC20FEF7FC
:1022B0008FFFFFF70DF80020FEF78AFFFFF708F801
:1022C000FEF7E0FFFEF7B8FFED20FEF781FFFEF717
:1022D000FFFF0120FEF744FF8DF800000120FEF70C
:1022E0003FFF8DF801000020FEF73AFF8DF8020055
:1022F000FEF7C8FF9DF8000001049DF8010001EB06
:1023000000209DF802104518284638BD2DE9F047F9
:102310005820FFF7B5FF84490860142006F02EFD11
:102320004820FFF7ADFF81490860142006F026FD24
:102330007F4840697C490968A1EB00207D4908601D
:102340007B480022C1687B480068C617A1FB004794
:1023500002FB007001FB06014FF48072002320464F
:10236000FDF76DFF724A52684FF40043A2FB03323F
:10237000C0185141704A03C26D48002201696D487E
:102380000068C317A1FB004702FB007001FB0301BB
:10239000802200232046FDF752FF654A92684FF4E1
:1023A0008033A2FB0332C0185141644A03C2604823
:1023B000002281695F480068C617A1FB004702FB45
:1023C000007001FB06014FF4000200232046FDF7D8
:1023D00036FF4FF4FA614018594908600846006812
:1023E000B0F5FA6F38DA03205249096880FB012101
:1023F00050480068C617A2FB004701FB007002FBB3
:102400000601002202232046FDF719FF4D4908600E
:102410004B490968A1F5FA6101EB4101484A12688C
:10242000A2F5FA6201FB02F000EBD0714910464AB6
:10243000116043490968A1F5FA6101EB8101404A45
:102440001268A2F5FA6201FB02F0C11700EB5171AC
:10245000C9103E4A11601EE0364800684043400003
:10246000C117044600222023FDF7E9FE3549086024
:1024700033490968A1F5FA61314A1268A2F5FA6296
:1024800001FB02F0C11700EB117109112E4A116016
:1024900000202E4908602948D0E900312A48006808
:1024A000C217181A61EB0201294A03C22248D0E977
:1024B000003126480068C217181A61EB0201254A4C
:1024C00003C21A48006800232249D1E9002CA0FB6E
:1024D000026A03FB02A200FB0C214FF400123046FB
:1024E000FDF7ADFE1A4B0CCB841A61EB03014FF4E0
:1024F000005200232046FDF7A2FE80460A22002358
:10250000FDF79DFE144908600D4909680D4A1268DF
:10251000881A07F049F804460022104B06F0B0FE76
:102520000F4A03C2BDE8F087D4010020D00100208B
:102530003C480020B4010020C8010020C001002058
:10254000B8010020F0010020E8010020EC0100208B
:10255000F801002000020020E001002000005940A6
:10256000D801002070B500F041F8142006F006FCF8
:10257000002430E0FEF760FEEC20FEF729FEFEF7B7
:10258000A7FEA02101EB4401C8B2FEF721FEFEF731
:102590009FFEFEF777FE052006F02AFCFEF74CFEB4
:1025A000ED20FEF715FE052006F022FCFEF790FE5A
:1025B0000120FEF7D5FD0546052006F019FC002098
:1025C000FEF7CEFD0646FEF75DFE46EA052006490B
:1025D00041F82400641C072CCCDB0348006808B9D0
:1025E000012070BD0020FCE73C48002010B5FEF73C
:1025F00023FEEC20FEF7ECFDFEF76AFE1E20FEF740
:10260000E7FDFEF765FEFEF73DFE10BD08B593E061
:10261000FFF77CFE6A464FF40071484800F080FFE7
:1026200047480078401C464908704649B1F90010F7
:1026300023291CDB44490978C9B944490988444A1B
:102640001288881800EBD0714910424A12689142F2
:102650000DDD41490978012909D14049097831B98D
:102660003F490978012902D10120374908703549CD
:10267000B1F9001023291DDB33490978012919D14B
:1026800032490988324A1288881800EBD071491003
:10269000304A126891420DDA2F490978012909D18F
:1026A0002E49097831B92E490978012902D1022031
:1026B0002549087024480078012816D12048007860
:1026C0000A2812D1274800682149098888420CD07D
:1026D0001F4800881D490988401A052190FBF1F028
:1026E0002049096808441F490860174800780228F3
:1026F00016D1134800780A2812D11A4800681A49DE
:10270000098888420CD01848008811490988401A65
:10271000052190FBF1F0134909680844114908604C
:10272000074800780A2190FBF1F201FB12000449EE
:102730000870322006F022FB6AE70000D422002055
:10274000390000202A0000202E0000203200002046
:1027500034000020E00100202C0000202F00002089
:1027600030000020740100203600002000BFFEE78A
:1027700030B505460C4622460021284600F002F8F6
:1027800030BD70472DE9F04103460C4617460FB99E
:10279000BDE8F08103B9FBE70025002202E02D022D
:1027A0002543521C042AFAD3384603F0030C194679
:1027B000BCF1000F08D0624603E001F8014B401E57
:1027C000521C08B1042AF8D30E4601E020C6001FAF
:1027D0000428FBD2314602E001F8014B401E0028DC
:1027E000FAD100BFD4E7000030B5C82800DDC8200A
:1027F000C82900DDC821C82A00DDC822C82B00DD99
:10280000C823642800DA6420642900DA6421642A79
:1028100000DA6422642B00DA6423044D28802D1D25
:1028200029802D1D2A802D1D2B8030BD34040040B1
:102830007047000070B5002100230F22C47804B354
:10284000154C246804F4E064C4F5E064210AC1F185
:102850000403CA40447804FA03F184781440214305
:1028600009010E4C0678A155047804F01F050124D7
:10287000AC4005786D11AD0005F1E025C5F80041CB
:1028800009E0047804F01F050124AC40044D0678EB
:10289000761145F8264070BD0CED00E000E400E044
:1028A00080E100E002490143024A116070470000E4
:1028B0000000FA050CED00E030B500240CE0002526
:1028C00006E00020074901EBC5010855681CC5B2A8
:1028D000802DF6DB601CC4B2082CF0DB00F0D0F8D1
:1028E00030BD0000103D0020F0B5144600267F28C2
:1028F00001DC3F2900DDF0BD0B46CF1701EB577718
:10290000FF10C7F10707FAB2CF1701EB5777FF1097
:10291000A1EBC707FDB2C5F107070123BB40DEB23B
:102920004CB10A4B03EBC0039B5C3343074F07EBEF
:10293000C007BB5408E0054B03EBC0039B5CB343EB
:10294000024F07EBC007BB5400BFD4E7103D002087
:1029500008B501210C2004F05DFF4FF47040ADF884
:10296000000010208DF8030003208DF80200694656
:102970003F48FEF7EDFA4FF440513D48FEF77CFB2F
:1029800001203C4908603C49C1F8B40100203B49A2
:102990000860642006F0F2F901203749C1F8B0015F
:1029A0000021AE2000F0B2F90021D52000F0AEF9F0
:1029B0000021502000F0AAF90021A82000F0A6F97B
:1029C00000213F2000F0A2F90021D32000F09EF961
:1029D0000021084600F09AF90021402000F096F905
:1029E00000218D2000F092F90021142000F08EF9D2
:1029F0000021202000F08AF90021022000F086F951
:102A00000021A12000F082F90021C02000F07EF911
:102A10000021DA2000F07AF90021122000F076F986
:102A20000021812000F072F90021EF2000F06EF902
:102A30000021D92000F06AF90021F12000F066F9A8
:102A40000021DB2000F062F90021302000F05EF967
:102A50000021A42000F05AF90021A62000F056F928
:102A60000021AF2000F052F9FFF726FF08BD00005B
:102A7000000C01409001214200802142B08121429E
:102A800030B500241CE004F1B001C8B2002100F010
:102A90003DF90021084600F039F90021102000F02E
:102AA00035F9002508E0084901EBC501085D012161
:102AB00000F02CF9681CC5B2802DF4DB601CC4B298
:102AC000082CE0DB30BD0000103D00202DE9F84F60
:102AD00080460F4616461C46BA462046E31704EBCE
:102AE0005373DB1021464FEAE47C04EB5C7C4FEA35
:102AF000EC0CA4EBCC0CBCF1000F02D04FF0010C9D
:102B000001E04FF0000C6344224604EBD27C4FEA14
:102B10006C0C03FB0CF303F0FF0BA6F12000C6B214
:102B200000254EE00C2C07D106EB4600274901EBAF
:102B30008000405D009013E0102C05D1244800EB8C
:102B40000610405D00900BE0182C07D106EBC60084
:102B5000204901EB8000405D009001E0BDE8F88F66
:102B60004FF0000927E0009800F0800028B13946B6
:102B700040460A9AFFF7B8FE09E00A9808B9012012
:102B800000E00020024639464046FFF7ADFE0098BF
:102B90004006000E0090781CC7B2A7EB0A00A042C6
:102BA00005D1574608F1010000F0FF0806E009F1E1
:102BB000010000F0FF09B9F1080FD4DB00BF681C69
:102BC000C5B25D45AEDB00BFC8E70000A0A50008A8
:102BD00014AA000804B000082DE9FF4F81B0074691
:102BE00091461E460E9D4FF0000A002439E0301B2E
:102BF000401EC1B20A2006F07FF9B9FBF0F00A21AD
:102C0000B0FBF1F201FB1208BAF1000F16D1701EF1
:102C1000A04213DDB8F1000F0ED10120AB4605EB49
:102C2000DB71491001FB04710090C8B22B462022D1
:102C30000299FFF74BFF12E04FF0010A0120AB466B
:102C400005EBDB71491001FB04710090C8B208F17B
:102C50003001CAB22B460299FFF738FF00BF601C53
:102C6000C4B2B442C3DB05B0BDE8F08FF8B5064688
:102C70000F4615461C4621E004EBD4714910C1F102
:102C80008001B14202DA00263819C7B2C4F140000F
:102C9000B84204DA002006460746FFF70DFE012081
:102CA00000902A78234639463046FFF70FFF20462A
:102CB00004EBD07106EB6101CEB26D1C28787E2842
:102CC00002DC28782028D7DAF8BD000008B518E023
:102CD0001020052300900B48302102680846FFF7BA
:102CE0007BFF102000900848407AA0F130020523B5
:102CF00030210020FFF770FFFFF7C2FE642006F0CE
:102D00003DF8E5E7E00100204C42002010B5144BEF
:102D100019600023134CC4F89031002216E0002300
:102D20000F4C241D236000F080031BB10123241DE0
:102D3000236003E000230A4C083423600123084C7D
:102D4000241D23604306180E531CDAB2082AE6DB62
:102D50000123054C2360054CC4F8B43110BD0000BC
:102D6000B481214200002142900121420080214291
:102D70007047000010B50348006810B101480068B2
:102D8000804710BD6800002070B5044600F0C2F80E
:102D90000020484908704849087048490870484967
:102DA000086048490860484908704849087048491F
:102DB000087048490860484908604849086048491F
:102DC0000870484800680A21B0FBF1F046490860E5
:102DD0004648006858B14648056845B1434806680A
:102DE00003E0761E002028602D1D002EF9D1002062
:102DF000404908604049086040490860404908600F
:102E000040490860404908604049086040490870EE
:102E100002F000FB02F0FEFB204601F057FC208888
:102E200000B170BD204602F071F8208800B1F8E7CB
:102E3000204602F077F8208800B1F2E7204602F041
:102E40005BF9208800B1ECE7204602F013FB2088F4
:102E500000B1E6E7204602F07BFD208800B1E0E704
:102E6000204603F0E5F8208800B1DAE7204601F0BB
:102E7000B9FF208800B1D4E7204601F0C3FD2088C7
:102E800000B1CEE7204604F03BF9208800B1C8E746
:102E9000204603F011F8208800B1C2E7204604F074
:102EA0008BF9208800B1BCE701F036FBFFF760FF2B
:102EB00000BFB6E77C00002084000020CC0000208A
:102EC0002401002028010020B2000020B3000020CF
:102ED000B4000020C0000020C4000020C800002072
:102EE000D4000020F0A30008D0000020C0A30008F8
:102EF000BCA300085C0000206000002064000020EB
:102F0000680000206C000020700000207400002089
:102F1000020100200A4A1168002002E0002204C1D8
:102F2000401C084A12689042F8D3054A1268054BC3
:102F30001B6802EB8302121F034B1A6070470000EC
:102F4000BCA30008C0A300082C010020084800789A
:102F5000012800D0704707480078FA2800DBF9E71D
:102F600004480078401C0349087000BFF2E70000E5
:102F7000840000207C00002010B500242E4800783A
:102F8000012800D010BD00BFFDF742F9044600BF84
:102F90002A48007828B900BF2046FDF73DF900BF58
:102FA000F0E726480078401E24490870084600785B
:102FB000002805DD00BF2046FDF72EF900BFE1E740
:102FC0001F480078002805DD00BF2046FDF724F9E2
:102FD00000BFD7E702F00AFA1A49087008460078DD
:102FE00000EB4000184951F82000184908600846D5
:102FF000006817490968884205D100BF2046FDF7DF
:103000000BF900BFBEE711480068D0F89000401CE3
:103010000E490968C1F890000E480068401C0D492F
:1030200008604FF080500C49086000BF2046FDF753
:10303000F3F800BF00BFA5E7840000207C0000205B
:10304000CC000020B30000203839002028010020E7
:1030500024010020F800002004ED00E010B5002459
:1030600020480078002800DD10BD1F4800780028A7
:1030700000DDF9E700BFFDF7CBF8044600BF02F022
:10308000B5F91A4908700846007800EB4000184965
:1030900051F8200017490860084600681649096879
:1030A000884205D100BF2046FDF7B6F800BFDBE738
:1030B00010480068D0F89000401C0E490968C1F81B
:1030C00090000E480068401C0C4908604FF080508A
:1030D0000B49086000BF2046FDF79EF800BF00BF07
:1030E000C2E700007C000020CC000020B3000020DC
:1030F000383900202801002024010020F800002099
:1031000004ED00E070B5044600251A480078002858
:1031100003DD46F66250208070BD17480078012814
:1031200003D045F689602080F6E714480078FA2835
:1031300003DB45F209202080EEE700BF00BFFDF76A
:1031400067F8054600BFFDF747FD00BF0B48007854
:10315000401C0A49087002F041FB00BFFDF756FD14
:1031600000BF2846FDF758F800BF00BF00202080B0
:1031700000BFD1E77C00002084000020CC000020AC
:1031800070B50446002523480078002803DD46F684
:103190006550208070BD20480078012803D045F696
:1031A00089602080F6E71D48007818B946F664501B
:1031B0002080EFE700BF00BFFDF72AF8054600BFFB
:1031C000FDF70AFD00BF15480078401E134908703E
:1031D0000846007800280CDD00BFFDF717FD00BF92
:1031E0002846FDF719F800BF00BF46F6635020805F
:1031F000D0E702F001FB00BFFDF708FD00BF284645
:10320000FDF70AF800BF00BFFFF728FF002020806D
:1032100000BFBFE77C00002084000020CC0000201D
:103220002DE9F04104460E4617461D464FF00008B2
:1032300030480078002804DD42F6E1602880BDE8CF
:10324000F0811CB945F6C3502880F8E700BF00BFE5
:1032500000BFFCF7DDFF804600BFFDF7BDFC00BFEF
:1032600025480078401C2449087008460078012849
:1032700001D102F0B3FA00BFFDF7C8FC00BF404621
:10328000FCF7CAFF00BF00BF00BF1C4820602762D8
:1032900000206062666004F1080001F0C1FF204672
:1032A00002F03EFB16480088401C1549088000BF0C
:1032B00000BF00BFFCF7ACFF804600BFFDF78CFCF1
:1032C00000BF0D480078401E0B4908700846007882
:1032D00008B902F091FA00BFFDF798FC00BF404624
:1032E000FCF79AFF00BF00BF00BF0020288000BF8E
:1032F000A5E700007C000020CC00002053454D4194
:10330000DC0000202DE9F04788B00646894690464B
:103310001C46109D4FF0000A7D480078002806DD0D
:1033200046F2AE102880002008B0BDE8F08726B92C
:1033300045F6C35028800020F6E7B8F1000F03D00F
:10334000B8F5004F02D100E000BF04E045F625606B
:1033500028800020E8E700BF6E493068884204D02A
:1033600045F6C45028800020DEE70CB10020206024
:1033700000BF00BFFCF74CFF824600BFFDF72CFCEE
:1033800000BF306A98B1306A401E30620CB1706A7A
:103390002060376A00BFFDF739FC00BF5046FCF7DC
:1033A0003BFF00BF00BF002028803846BCE708F480
:1033B000004070B1376A00BFFDF728FC00BF5046DF
:1033C000FCF72AFF00BF00BF46F2B0102880384645
:1033D000AAE75148007800280DDD00BFFDF716FC74
:1033E00000BF5046FCF718FF00BF00BF46F6635011
:1033F0002880002098E700BF47480078401C4649D5
:10340000087008460078012801D102F0E7F900BFF2
:10341000FDF7FCFB00BF5046FCF7FEFE00BF00BFFF
:1034200000BF4B4606223146684601F071FE00BFE0
:1034300000BF00BFFCF7ECFE824600BFFDF7CCFBEF
:1034400000BF35480078401E3349087008460078B0
:1034500008B902F0D1F900BFFDF7D8FB00BF504614
:10346000FCF7DAFE00BF00BF00BFFFF7F7FD00BFAB
:1034700000BFFCF7CDFE824600BFFDF7ADFB00BFED
:103480002648006890F8350030B101280CD0022899
:103490001AD0032821D110E01CB120480068006C2C
:1034A00020600020288026E01CB11C480068006CC9
:1034B000206046F2A91028801DE00CB10020206099
:1034C00047F2D920288016E01CB114480068006C2F
:1034D000206045F6C25028800DE046F62E60288018
:1034E00000BFFDF793FB00BF5046FCF795FE00BF01
:1034F00000BF002018E700BF376A00BFFDF786FB5A
:1035000000BF5046FCF788FE00BF00BF38460BE7FF
:103510007C00002053454D41CC00002024010020B8
:103520002DE9FF4105460F46144635B945F6C3500F
:103530002080002004B0BDE8F0814FB1B7F5007FD6
:1035400007D0B7F5004F05D0B7F5024F04D102E020
:1035500000BF00BF00BF04E045F6256020800020CA
:10356000E8E700BF12492868884204D045F6C450F5
:1035700020800020DEE7FDF7BDFB06460D48007801
:1035800000280CDD0020034602462946CDE90176DD
:1035900003940090064801F06DFA0020CAE7234624
:1035A00032463946284602F0DFF980464046C1E7F8
:1035B00053454D417C00002010B504461248007868
:1035C000E8B901F013FF1149087008460078104966
:1035D00008700E48007800EB40000E4951F82000BA
:1035E0000D490860084600680C490860012006493A
:1035F0000870FCF737FF43F69920208002E045F67B
:103600008A60208010BD000084000020B3000020EC
:10361000B2000020383900202801002024010020B9
:103620002DE9F04107464FF0000800BF00BFFCF74E
:10363000EFFD804600BFFDF7CFFA00BF00204749ED
:10364000086047490880474908804749086047495A
:10365000086047490860474908604749086047498A
:10366000088100BFFDF7D2FA00BF4046FCF7D4FD49
:1036700000BF00BF00BF00BFFCF7CAFD804600BF0F
:10368000FDF7AAFA00BF3E48046800BFFDF7BEFA86
:1036900000BF4046FCF7C0FD00BF00BF26E000BFF2
:1036A00000BFFCF7B5FD804600BFFDF795FA00BFEF
:1036B00000207834E063206420602063A061A08251
:1036C000E0826062A062FDF715FB2062783C04F1A5
:1036D00064060020B081D4F8C04000BFFDF796FA20
:1036E00000BF4046FCF798FD00BF00BF002CD6D1BC
:1036F00000BF00BFFCF78CFD804600BFFDF76CFAF1
:1037000000BF2048056800BFFDF780FA00BF4046B3
:10371000FCF782FD00BF00BF16E000BF00BFFCF752
:1037200077FD804600BFFDF757FA00BF05F1200680
:103730000020B081AD6900BFFDF768FA00BF4046C8
:10374000FCF76AFD00BF00BF002DE6D103F0A0FB2F
:1037500003F02EFE00203880BDE8F08198000020A4
:1037600092000020E2000020F40000200801002068
:103770001401002080000020C40000202C3900200B
:10378000FC000020B8000020F8B504460026694679
:10379000364800F033FDBDF8000018B1BDF8000058
:1037A0002080F8BD6A460021022000F0A9FDBDF886
:1037B000000018B1BDF800002080F2E700BF00BF94
:1037C000FCF726FD064600BFFDF706FA00BF002005
:1037D0002749086000BFFDF719FA00BF3046FCF723
:1037E0001BFD00BF00BF0025224800682249096870
:1037F000884205D91F4800681F490968B0FBF1F5E8
:1038000025B91C4800680A21B0FBF1F56A46002181
:10381000284600F075FD6946144800F0A5FABDF889
:10382000000018B1BDF800002080BAE700BF00BF5B
:10383000FCF7EEFC064600BFFDF7CEF900BF002006
:103840000E4908600A4800680D49086001200D49CA
:10385000087000BFFDF7DAF900BF3046FCF7DCFC6A
:1038600000BF00BF0020208000BF9AE7483C002036
:10387000E4000020F0A30008D8A30008F400002012
:10388000E8000020F000002010B50348006810B1E7
:1038900001480068804710BD6C0000202DE9FF4FF3
:1038A00087B004469046DDE91BA5DDE91496179F15
:1038B0000020039095480078002805DD47F24A1063
:1038C00028800BB0BDE8F08F1CB947F2AD102880FE
:1038D000F7E7B8F1000F03D147F24F102880F0E767
:1038E0001EB946F62F602880EBE7894800688742BA
:1038F00003D246F630602880E3E71698B84203D337
:1039000046F631602880DCE7B9F1200F03D346F298
:1039100073202880D5E7B9F1000F06D17D48844295
:1039200003D046F273202880CBE7B9F11F0F06D1F0
:103930007948844203D046F273202880C1E72046AC
:1039400002F086FB002028800AF0010090B10AF006
:10395000020078B105960020069008E00021059845
:1039600001600598001D05900698401C0690069879
:10397000B842F3D3169806EB80000490CDE9007AA4
:1039800032464046049B0A9900F0D8FB0590C4F8E3
:1039900028800A98E0620898206284F83790059899
:1039A00020600498A06019986065199818B95B4860
:1039B0000068A06501E01998A0651A9860606662C9
:1039C000A763A4F83CA04FF0000B08E0002104F12D
:1039D0007C0040F82B100BF1010000F0FF0BBBF155
:1039E000000FF3D004F16400189901F0FBFA2046AF
:1039F00000F09EF800BF00BF00BFFCF709FC039079
:103A000000BFFDF7E9F800BF45480078401C444975
:103A1000087008460078012801D101F0DFFE00BFE0
:103A2000FDF7F4F800BF0398FCF7F6FB00BF00BFFA
:103A300000BF94F8370001F0F9FC204601F032FE97
:103A4000204602F0BBFA37480088401C3549088000
:103A500035480078012837D000BF00BF00BFFCF711
:103A6000D7FB039000BFFDF7B7F800BF2C480078E4
:103A7000401E2B49087008460078D0B901F0BCFE02
:103A80002A48008800280BDD00BFFDF7BFF800BF03
:103A90000398FCF7C1FB00BF00BF01F071FE11E00D
:103AA00000BFFDF7B3F800BF0398FCF7B5FB00BFFC
:103AB00008E000BFFDF7AAF800BF0398FCF7ACFBD5
:103AC00000BF00BF00BFFCE600BF00BF00BFFCF7A7
:103AD0009FFB039000BFFDF77FF800BF1048007800
:103AE000401E0F4908700846007808B901F084FEAE
:103AF00000BFFDF78BF800BF0398FCF78DFB00BFFC
:103B000000BF00BFFFF7AAFA00BFDAE67C00002082
:103B1000ECA30008643800209C370020D00000206F
:103B2000CC00002000010020840000209000002034
:103B300010B504460348006818B1204601490968D9
:103B4000884710BD5C00002070B504460D46002675
:103B500078480078002803DD47F24E10288070BDB9
:103B60007548844203D147F24C102880F7E7734828
:103B7000844203D147F24D102880F0E79CB900BF82
:103B800000BFFCF745FB064600BFFDF725F800BF68
:103B90006B48046800BFFDF739F800BF3046FCF7FA
:103BA0003BFB00BF00BF00BF00BF00BFFCF730FB06
:103BB000064600BFFDF710F800BF62480078401CC1
:103BC0006049087008460078012801D101F006FE1E
:103BD00000BFFDF71BF800BF3046FCF71DFB00BF20
:103BE00000BF00BF94F8360008282DD2DFE800F0AF
:103BF00004090E10080A0F11204601F093FD5EE043
:103C00005DE000BF204603F027F958E000BF00BF89
:103C100000BF204603F020F994F83400082810D2A1
:103C2000DFE800F004070508090A0B0600BF00BF23
:103C300008E000BF00BF00BF00BF204601F028FB26
:103C400000E000BF00BF3AE000BF00BF00BFFCF7CC
:103C5000DFFA064600BFFCF7BFFF00BF3948007817
:103C6000401E3849087008460078D0B901F0C4FDFC
:103C70003548008800280BDD00BFFCF7C7FF00BFF8
:103C80003046FCF7C9FA00BF00BF01F079FD11E032
:103C900000BFFCF7BBFF00BF3046FCF7BDFA00BF1A
:103CA00008E000BFFCF7B2FF00BF3046FCF7B4FAF3
:103CB00000BF00BF00BF46F62D6028804FE700BF61
:103CC00004F1640001F06CF9204600F041F8204650
:103CD00002F08CF91D480088401E1C4908802046CF
:103CE00002F0B6F9FF2084F8360000BF00BF00BF25
:103CF000FCF78EFA064600BFFCF76EFF00BF1148C6
:103D00000078401E0F4908700846007808B901F095
:103D100073FD00BFFCF77AFF00BF3046FCF77CFA6A
:103D200000BF00BF00BF00202880FFF797F900BF49
:103D300015E700007C0000209C370020643800203C
:103D400024010020CC000020900000200001002071
:103D500010B504460348006818B1204601490968B7
:103D6000884710BD600000207FB504460D46002640
:103D700000BF00BFFCF74CFA064600BFFCF72CFF63
:103D800000BF1CB11748006884420CD100BFFCF78B
:103D90003DFF00BF3046FCF73FFA00BF00BF47F2CF
:103DA000571028807FBD00BFFCF730FF00BF3046B2
:103DB000FCF732FA00BF00BF0B48007800280BDD8B
:103DC000002000900190034602462146CDE90205FD
:103DD000064800F04FFEE5E72946204602F0E4FAE7
:103DE00000BFDFE7240100207C000020545245532F
:103DF00010B504460348006818B120460149096817
:103E0000884710BD640000202DE9F04780460E462B
:103E100014461D464FF000098C480078002805DD47
:103E200046F2AE1028800020BDE8F0871EB1B6F53E
:103E3000004F02D100E000BF04E045F62560288075
:103E40000020F1E700BF0CB10020206000BF00BFE0
:103E5000FCF7DEF9814600BFFCF7BEFE00BF7C48E0
:103E60000068406CB8B37A480068406C401E7849DE
:103E70000968486476480068476C1CB1744800685B
:103E8000006C2060FCF736FF71490968096C401A24
:103E90006F490968C1F8A4006D480068D0F8A8000F
:103EA0006B490968D1F8A410884207D268480068B5
:103EB000D0F8A40066490968C1F8A80000BFFCF763
:103EC000A5FE00BF4846FCF7A7F900BF00BF0020D1
:103ED00028803846A8E7FFE706F4004068B100BF35
:103EE000FCF794FE00BF4846FCF796F900BF00BF00
:103EF00046F2B0102880002096E756480078002847
:103F00000DDD00BFFCF782FE00BF4846FCF784F9D8
:103F100000BF00BF46F663502880002084E700BF42
:103F20004C480078401C4B4908700846007801282E
:103F300001D101F053FC00BFFCF768FE00BF48460A
:103F4000FCF76AF900BF00BF00BF4346072200210B
:103F5000084601F0DDF800BF00BF00BFFCF758F9CC
:103F6000814600BFFCF738FE00BF3A480078401E8B
:103F7000384908700846007808B901F03DFC00BFD8
:103F8000FCF744FE00BF4846FCF746F900BF00BFFF
:103F900000BFFFF763F800BF00BFFCF739F98146A7
:103FA00000BFFCF719FE00BF2948006890F83500F3
:103FB00020B1012826D0032834D12CE0FCB12448BC
:103FC0000068006C2060FCF795FE21490968096CC7
:103FD000401A1F490968C1F8A4001D480068D0F8BC
:103FE000A8001B490968D1F8A410884207D21848D4
:103FF0000068D0F8A40016490968C1F8A80000209C
:10400000288013E01CB112480068006C206046F262
:10401000A91028800AE00CB10020206047F2D920C6
:10402000288003E046F62E60288000BF00BF0848C5
:104030000068476C00BFFCF7E9FD00BF4846FCF78D
:10404000EBF800BF00BF3846EEE600007C00002021
:1040500024010020CC0000202DE9F04705460E4643
:1040600017461C464FF0000A32480078002804DD4D
:1040700047F259102080BDE8F0871EB946F2D520DE
:104080002080F8E71FB946F2D5202080F3E700BF73
:1040900000BFFCF7BDF8824600BFFCF79DFD00BFE6
:1040A0000DB925480568286878B900BFFCF7AEFD52
:1040B00000BF5046FCF7B0F800BF00BF00203060E2
:1040C000386047F252102080D5E795F83C0000F0A8
:1040D000010078B900BFFCF799FD00BF5046FCF71E
:1040E0009BF800BF00BF00203060386047F25410DA
:1040F0002080C0E700BFFCF789FD00BF5046FCF7F9
:104100008BF800BF00BF4FF00008D5F8249003E003
:1041100009F1040908F10108D9F800000028F7D0D6
:10412000C6F80080A86BA0EB080038600020208053
:1041300000BFA0E77C00002024010020F0B5044669
:10414000DDE9055602EB85004FF0807C071F3846FD
:10415000C7F800C0071F38463C60DFF89CC0071F47
:104160003846C7F800C04FF0123C071F3846C7F862
:1041700000C04FF0033C071F3846C7F800C04FF09F
:10418000023C071F3846C7F800C0071F38463B608F
:10419000071F384639604FF0113C071F3846C7F8F3
:1041A00000C04FF0103C071F3846C7F800C04FF062
:1041B000093C071F3846C7F800C04FF0083C071FEE
:1041C0003846C7F800C04FF0073C071F3846C7F80D
:1041D00000C04FF0063C071F3846C7F800C04FF03C
:1041E000053C071F3846C7F800C04FF0043C071FC6
:1041F0003846C7F800C0F0BD256500087FB5054604
:104200000C461248854203D147F25B1020807FBDE7
:104210000F48854203D147F25C102080F7E70D4834
:10422000007800280BDD0020009001900346024634
:104230002946CDE90204084800F01CFCE7E72146C6
:10424000284602F04FFC00BFE1E700009C37002049
:10425000643800207C0000205453555370B5244826
:10426000006810B1224800688047FCF743FD04460F
:104270002048006820490968884215D01D48006818
:10428000D0F89800201A1B490968C1F89400194811
:104290000068D0F89C0017490968D1F894100844C8
:1042A00014490968C1F89C0013480068C0F8984098
:1042B000FCF766FC05460F480068D0F8B400A84239
:1042C00003D20C480068C0F8B4500A480068D0F81F
:1042D000B8000A490968884205D2084800680549BB
:1042E0000968C1F8B80000200449086070BD0000EA
:1042F000700000202401002028010020C8000020B8
:104300002DE9F04105460E46144600274D48007839
:10431000002804DD47F275202080BDE8F0814A487E
:104320000078002803DD46F663502080F5E736B1BB
:10433000022E05D0042E0AD0082E09D101E000BFBC
:1043400000BF1DB947F27E202080E6E704E003E0CD
:1043500045F625602080E0E700BF00BF00BF00BF3A
:10436000FBF756FF074600BFFCF736FC00BF364898
:104370000078401C3449087008460078012801D1B3
:1043800001F02CFA00BFFCF741FC00BF3846FBF7F8
:1043900043FF00BF00BF00BF01202C49096881F81E
:1043A00036002346324629462848006802F076FC4B
:1043B0002088F0B100BF00BF00BFFBF729FF074610
:1043C00000BFFCF709FC00BF1F480078401E1E49D3
:1043D00008700846007808B901F00EFA00BFFCF733
:1043E00015FC00BF3846FBF717FF00BF00BF00BF3A
:1043F00093E71648006801F095F900BF00BF00BFC1
:10440000FBF706FF074600BFFCF7E6FB00BF0E48C0
:104410000078401E0C4908700846007808B901F081
:10442000EBF900BFFCF7F2FB00BF3846FBF7F4FEE8
:1044300000BF00BF00BFFEF711FE0020208000BFBC
:104440006BE700007C000020CC000020240100204D
:1044500010B586B000F01EF8FCF74CFC044605A829
:1044600000210091CDE9011403900748007800EB8A
:104470004000064A02EB800100231A46044800F07F
:10448000F9FA06B010BD0000B20000203839002053
:104490005449434B10B50348006810B10148006807
:1044A000804710BD7400002010B5002400BF00BF7D
:1044B000FBF7AEFE044600BFFCF78EFB00BF0948C9
:1044C0000078401C0749087000BFFCF79FFB00BF45
:1044D0002046FBF7A1FE00BF00BFFFF7B9FFFEF7C4
:1044E0004BFD10BD7C00002001464A1E4FF0E0232A
:1044F0005A61084A106820F07F4000BF10601A46D9
:10450000126942F005021A611A46126942F002026B
:104510001A61704720ED00E0254A2649264A274ABD
:104520002749284A2848294A294A2A4A2A4A2B48F8
:104530002B482C482C4A2D482D4A2E482E4A2F48CD
:104540002F4830483048314A314A324A3248334A9B
:10455000334A344834483548354836483648374871
:10456000374A384A384A394A39483A483A483B4A39
:104570003B4A3C4A3C483D483D483E493E483F4A0C
:104580003F4A404A404A414A414A424A4248434AD5
:10459000434A44484448454A454A4648464A474AA9
:1045A00047484848484800BF00BF00BF7047000068
:1045B00034A400089CA5000835A4000836A400080F
:1045C00038A400083CA4000840A400083DA400084A
:1045D00068A4000869A400086AA400086CA4000884
:1045E0006EA4000870A4000872A4000874A4000857
:1045F00094A4000896A4000898A400089AA40008AF
:104600009CA400089EA40008A0A40008CCA4000854
:10461000CDA40008CEA40008D0A40008D2A40008AD
:10462000D3A40008D4A40008D6A40008D8A4000885
:10463000DAA40008DCA40008DEA40008E0A4000856
:1046400010A5000811A5000812A5000813A5000870
:1046500014A5000816A5000818A5000840A5000824
:1046600041A5000842A5000843A5000844A500088C
:1046700046A5000848A500084CA500084DA500085F
:104680004EA500084FA5000850A5000851A5000838
:1046900052A5000853A5000854A5000856A5000817
:1046A00057A5000858A500085AA500085CA50008F1
:1046B0005DA5000860A5000894A5000895A5000860
:1046C00096A5000898A500089AA500080021034AAD
:1046D0001160034A11800180704700009C00002097
:1046E000A00000202DE9F04F85B00446894692468F
:1046F0009B46DDF838800020009000BF00BFFBF72C
:1047000087FD009000BFFCF767FA00BFBAF1000F09
:104710000AD0BAF1010F0DD0BAF5004F05D06FF4F1
:104720000040504460B906E000BF206A40EA09003A
:10473000206216E000BF206A20EA0900206210E033
:1047400000BFFCF763FA00BF0098FBF765FD00BFF0
:1047500000BF45F62560A8F80000002005B0BDE8C0
:10476000F08F00BFC4F824B004F108000190019854
:10477000008968B900BFFCF749FA00BF0098FBF751
:104780004BFD00BF00BF0020A8F80000206AE5E74D
:1047900000BF71480078401C6F49087008460078D7
:1047A000012801D101F01AF800BFFCF72FFA00BF71
:1047B0000098FBF731FD00BF00BF00BF01980768FC
:1047C000BD6889E07868029095F8880000F00F00D5
:1047D00003900398012821D002282ED0042802D06B
:1047E000082836D10EE0206AD5F8801000EA0106CC
:1047F000D5F88000B04204D15A463146284600F030
:10480000AFF863E0206AD5F8801000EA010626B10F
:104810005A463146284600F0A3F857E0D5F8800004
:10482000216A20EA0106D5F88000B04204D15A4638
:104830003146284600F094F848E0D5F88000216A17
:1048400020EA010626B15A463146284600F088F88B
:104850003CE000BF00BF00BFFBF7DAFC009000BFE8
:10486000FCF7BAF900BF3C480078401E3A4908708E
:1048700008460078D0B900F0BFFF3848008800280B
:104880000BDD00BFFCF7C2F900BF0098FBF7C4FCCA
:1048900000BF00BF00F074FF11E000BFFCF7B6F9E5
:1048A00000BF0098FBF7B8FC00BF08E000BFFCF7B2
:1048B000ADF900BF0098FBF7AFFC00BF00BF00BF21
:1048C00043F6FF20A8F80000002047E700BF029F42
:1048D0000FB1BD6800E00025002D7FF473AF00BF6D
:1048E00000BF00BFFBF794FC009000BFFCF774F919
:1048F00000BF19480078401E174908700846007824
:1049000008B900F079FF00BFFCF780F900BF0098FC
:10491000FBF782FC00BF00BF00BF0AF4004008B9EB
:10492000FEF79CFB00BF00BFFBF772FC009000BFCE
:10493000FCF752F900BF206A049000BFFCF766F94B
:1049400000BF0098FBF768FC00BF00BF0020A8F87C
:104950000000049802E70000CC0000209000002036
:1049600070B504460E461546343426650020607046
:104970002070E560A078343C082816D2DFE800F00B
:10498000040508090706101100BF00BF00BF0DE0B5
:1049900000BF204601F0FAFC002084F8360005E054
:1049A00000BF042084F8360000E000BF00BF2046AE
:1049B00000F06EFC70BD0000002400BF1DE000BFD1
:1049C00000BFFBF725FC044600BFFCF705F900BF5C
:1049D0000A480068401C0949086009480068401CF2
:1049E0000749086000BFFCF711F900BF2046FBF73C
:1049F00013FC00BF00BFFEF7BDF9E0E77800002020
:104A0000E400002010B58AB0044600200E4908607A
:104A10000B2000210591CDE90704069108460B49BA
:104A200009680B4A12680B4B1B68CDE90132CDE9CE
:104A300003101F200023084A08A100900C48FEF72D
:104A40002DFF0AB010BD00007800002098A30008D8
:104A500094A3000890A30008B949000875432F4F9C
:104A6000532D4949492049646C65205461736B009A
:104A70009C3700202DE9F84F04460D4616461F4688
:104A8000DDE90BABDDF82890DDF8348000200090E4
:104A900000BF00BFFBF7BCFB009000BFFCF79CF819
:104AA00000BF2C4800882C49098888423EDA2948F2
:104AB0000088401C274908802848008809888842C7
:104AC00003DA2448008825490880254800680460E6
:104AD00023480068856022480068C6602048006856
:104AE00007821F480068C0F814901D480068A0F8AD
:104AF00018A01B480068C0F81CB01948006840683E
:104B00001749086001201749088117480860486064
:104B1000002000F08BFC1548007818B1134800788D
:104B2000134908700020A8F8000008E01148008828
:104B3000401C1049088044F25360A8F8000000BFF0
:104B4000FCF764F800BF0098FBF766FB00BF00BFEE
:104B5000BDE8F88F90000020A4A300089200002078
:104B6000880000203839002064380020B20000207E
:104B7000B4000020940000203EB559480068006849
:104B8000584A811A904279D00FDC574908440028CE
:104B90003ED056490844A8B155490844002860D081
:104BA0005449084400286AD13FE05348084400288B
:104BB00050D052490844002862D051490844002886
:104BC000F1D110E002A8464D00902D68EB69444DEC
:104BD0002D682A8B424D2D686969414D2D68A86862
:104BE000FFF780FD7AE002A93D480068C0693C4DAE
:104BF000CDE900012D682B8B394D2D682A8A384D5F
:104C00002D68E968364D2D68A86800F03FFC65E026
:104C1000334B1B68DA69324B1B68198B304B1B68AE
:104C2000986802AB00F0A0FE58E002A92C4800688A
:104C3000C0692B4DCDE900012D682B8B284D2D68C7
:104C40002A8A274D2D68E968254D2D68A86801F04E
:104C500067FA43E022490968886802A901F0A4FBC9
:104C60003CE01F4B1B68DA691D4B1B68198B1C4B02
:104C70001B68986802AB01F061FC2FE007E02CE0B4
:104C800017490968886802A901F02CFF26E01D4930
:104C9000097801EB41011C4A02EB810000F0CAFDDA
:104CA0000F48006802AB0021C269184801F046FCB9
:104CB00017480068401E164908600846006858B941
:104CC000144800680860FCF715F8044602AB224659
:104CD0000021114801F032FC00E000BF00BF3EBDE2
:104CE0008C0000205449434BADBAB2BE0DF90BFA0B
:104CF000F2F8F7FF0006F6FF00F7FDF700FFEFFF01
:104D000003FE0FFEB400002038390020803B002055
:104D1000200100201C010020483C0020002700BF8B
:104D200056E0002652E000BF00BFFBF771FA0746CD
:104D300000BFFBF751FF00BF2648008898B900204C
:104D4000254908810860486000F082FB00BFFBF73E
:104D50005DFF00BF3846FBF75FFA00BF00BFFEF7FC
:104D60007DF9012632E000BFFBF750FF00BF384657
:104D7000FBF752FA00BF00BFFBF7BCFF0546FFF789
:104D8000FBFEFBF7B7FF441B14480068A04201D2AA
:104D90001248046000BF00BFFBF73AFA074600BFA5
:104DA000FBF71AFF00BF0E48006840680C49086016
:104DB00008480088401E0749088000BFFBF726FF0F
:104DC00000BF3846FBF728FA00BF00BF002EAAD06C
:104DD000A7E700009000002038390020980000204C
:104DE0008C000020F0B589B00546002031490880CC
:104DF0003148006820B944F25260288009B0F0BD03
:104E00002E480088022803DA44F254602880F5E72F
:104E100000202B49086028480468264620360027D1
:104E20000CE0284820600020A060E06020826061E3
:104E30002083666020342036781C87B21F480088A3
:104E40008742EEDB203C1C48066866601E48066010
:104E50001E48066000201E4908801E4908801E4822
:104E6000006818B944F255602880C7E71B480068FD
:104E70001B490968884203D244F256602880BDE786
:104E8000032000210591CDE907050691134800682C
:104E9000144A1268104B1B68CDE90301CDE90132B9
:104EA00000910B46104A11A11748FEF7F7FC00BF0E
:104EB000A4E7000094000020A0A30008A4A3000819
:104EC000980000204E4F4E45880000208C000020A6
:104ED0009000002092000020ACA30008B4A30008BA
:104EE000ECA30008B0A300081D4D000875432F4F28
:104EF000532D494949204953522051756575652004
:104F00005461736B00000000643800200021034AE4
:104F10001160034A1180018070470000A400002046
:104F2000A800002070B501461A4D2D681DB945F244
:104F30001E750D8070BD184D2D881DB945F21D756B
:104F40000D80F7E7134D28682A681032124D2D881E
:104F50006D1EACB2002308E00260002545600581AB
:104F6000C560103010325D1CABB2A342F4DB0025EB
:104F7000056045600581C560064D2D68074E3560AA
:104F8000054D2D88B5800025F58035810D8000BF49
:104F9000D0E70000D0A30008C8A300082C390020E7
:104FA00010B5014648894B89002B17DD0A680C4B68
:104FB0001B6813600A4C4B6823602346DB884C89CE
:104FC0001B1B074CE38023469B884C892344044CDD
:104FD000A38000234B818B810B604B6010BD0000D0
:104FE0002C390020018100224281828102604260CE
:104FF000704700002DE9F0410D46DDE90674B0F878
:105000000AC0B0F80880C44505DB46F2935CA4F8FA
:1050100000C0BDE8F081DFF8DCC0BCF804C0BCF122
:10502000000F04D145F21D7CA4F800C0F1E7DFF8C1
:10503000C4C0DCF80010DFF8BC80D1F800C0C8F8AC
:1050400000C0C446BCF804C0ACF1010CA8F804C010
:10505000C446BCF806C00CF1010CA8F806C0C44652
:10506000BCF808C0B8F80680C44507DADFF884C089
:10507000BCF806C0DFF87C80A8F808C0B0F80AC009
:10508000BCF1000F0AD1016041604FF0010CA0F8A3
:105090000AC04FF0000CC1F800C017E003F0100C7C
:1050A000BCF1000F07D10668316001604FF0000CC1
:1050B000C1F800C004E0D0F804C0C1F800C04160ED
:1050C000B0F80AC00CF1010CA0F80AC0B0F80CC08E
:1050D000B0F80A80C44503DAB0F80AC0A0F80CC0E2
:1050E0004D600A81CF604FF0000CA4F800C000BFF3
:1050F0008FE700002C3900200021034A1160034A89
:105100001180018070470000AC000020B00000203A
:105110002DE9F04105460C4616461F461548006825
:1051200080F8346000201349096881F83500394659
:105130001048006800F026FF6CB104F10808EC602C
:10514000012229460B48006800F016F8294640461F
:1051500000F06BF806E0002006490968C887054999
:105160000968086303480168204600F019F8BDE8A3
:10517000F08100002401002010B5C28701630023E4
:105180000AE000244C600C600C614C610C83CC6123
:10519000886020315C1CA3B29342F2DB10BD00009A
:1051A00030B548B14568C1F8C45000F10804226820
:1051B00093681D6AC56113E091F83450022D02D046
:1051C000072D08D103E007A5C1F8C45007E007A5E3
:1051D000C1F8C45003E008A5C1F8C45000BF00BF27
:1051E00030BD00005461736B205100005461736B3B
:1051F0002053656D000000002000000030B507A5B9
:10520000C1F8C45000F1080422681AB193681D6AFD
:10521000C56101E001A5C56130BD000020000000AE
:1052200000210160416001817047F0B58E6896F8F9
:10523000375007893FB90127078100274F600F606A
:105240000160416023E007897F1C0781026806E056
:10525000946894F83770AF4200DD02E05268002A8B
:10526000F6D100BF32B900274F6043680B60596028
:1052700041600CE017682FB9116000270F604A6089
:10528000016004E013680B604A6059601160F0BD72
:105290002DE9F0410446256BE68F0AE0D5F80C8035
:1052A00008F108072946384600F00AF82035701E34
:1052B00086B2002EF2DC0020E0872063BDE8F0819A
:1052C00010B50489012C03D100240460446011E06E
:1052D0000C6824B94A680024146002600AE04C6833
:1052E00024B90B6800245C60436003E00B684A68E3
:1052F0005A6013600489641E048100244C600C60B1
:1053000010BD2DE9F84306460C4617469846089D01
:1053100094F83600082850D2DFE800F004050809A8
:1053200006072B2C00BF00BF00BF47E000BF94F86A
:105330003400032807D143463A46214630460095BB
:1053400000F03FF803E0E765A4F86080256436B11B
:105350002046FFF79DFF21463046FFF74FFF2046CE
:1053600001F014F800203434A070607004F834099F
:1053700024E000BF94F83400032807D143463A469E
:1053800021463046009500F01CF803E0E765A4F8DC
:1053900060802564204601F05FFD36B12046FFF7AE
:1053A00077FF21463046FFF729FF04203434A070F0
:1053B0000020607004F8340900E000BF00BFBDE8C1
:1053C000F883F0B50446059E086BCD8F0AE0C768E8
:1053D000A74204D1046142610383C66104E0203026
:1053E0006F1EBDB2002DF2DC00BFF0BD70B5002510
:1053F000074C03E005F12000C5B2241D20680028F9
:10540000F8D02068FAF70FFF2844C5B2284670BDCF
:1054100058000020002004E00021034A42F8201038
:10542000401C0028F8D070475800002030B54209D1
:1054300000F01F030121C3F11F04A140034C54F8E5
:1054400022400C43014D45F8224030BD5800002059
:1054500030B5420900F01F030121C3F11F04A14030
:10546000034C54F822408C43014D45F8224030BD96
:10547000580000200021034A1160034A1180018076
:1054800070470000B8000020BC0000202DE9F04F5C
:1054900085B007468A4693461C460020029000BF0E
:1054A00000BF00BFFAF7B4FE029000BFFBF794FB09
:1054B00000BF56480078401C5449087008460078E0
:1054C000012801D100F08AF900BFFBF79FFB00BF64
:1054D0000298FAF7A1FE00BF00BF00BF07F108065F
:1054E000308900284CD104F0100010B94FF00008AA
:1054F00001E04FF01008DDE90E0143465A46CDE9C0
:105500000001514607F12000FFF774FD00BF00BF06
:1055100000BFFAF77DFE029000BFFBF75DFB00BF06
:105520003A480078401E3949087008460078D0B9DA
:1055300000F062F93648008800280BDD00BFFBF759
:1055400065FB00BF0298FAF767FE00BF00BF00F0DE
:1055500017F911E000BFFBF759FB00BF0298FAF7FB
:105560005BFE00BF08E000BFFBF750FB00BF0298E6
:10557000FAF752FE00BF00BF00BF05B0BDE8F08FD4
:1055800004F4007008B1358900E00125D6F80090D8
:1055900011E0D9F808000390D9F8040004900E989F
:1055A0005B465246009038460399FFF7AAFEDDF8A5
:1055B0001090681E85B2002DEBD100BF00BF00BF68
:1055C000FAF726FE029000BFFBF706FB00BF0F486C
:1055D0000078401E0D4908700846007808B900F0B0
:1055E0000BF900BFFBF712FB00BF0298FAF714FE9D
:1055F00000BF00BF00BF04F4004008B9FDF72EFD56
:1056000000210F98018000BFB7E70000CC00002008
:105610009000002000210AE001EB4102054B03EB62
:10562000820000220281026042604A1CD1B220291D
:10563000F2D370473839002010B5044694F837008B
:10564000FFF7F4FE94F8370005490978884203D142
:10565000204600F027F802E0204600F003F810BDD5
:10566000B200002010B590F8373003EB43030C4C28
:1056700004EB83010B893BB901230B810023C36039
:1056800003610860486009E00B895B1C0B810B68B3
:10569000C360002303610A681061086010BD000048
:1056A0003839002010B590F8373003EB43030B4C2A
:1056B00004EB83010B893BB901230B810023C360F9
:1056C00003610860486008E00B895B1C0B810023C4
:1056D000C3604A680261D060486010BD383900205C
:1056E00010B501460C8924B1012C03D0022C0CD139
:1056F00001E000BF14E008684A6802610024C46049
:105700001461D0600A6048600AE008684A68C368AB
:1057100000241C61C4600261D0600B60486000BF5F
:1057200000BF10BD2DE9F041054695F8370000EBAC
:105730004000124901EB80042F69EE6887B946B931
:10574000002020812060606095F83700FFF780FE20
:105750000EE02089401E208100203061266007E095
:105760002089401E2081FE600EB9676000E037612D
:1057700000202861E860BDE8F08100003839002091
:1057800010B5002400BFFAF743FD044600BF002017
:105790000D4908700D480E49086008460068D0F8A9
:1057A0009000401C0968C1F890000A480068401C3D
:1057B000084908604FF080500749086000BF204644
:1057C000FAF72AFD00BF10BDB300002064380020A6
:1057D00028010020F800002004ED00E010B5044886
:1057E0000078012803D1FBF785FA0249086010BD53
:1057F000CC000020C000002010B50A48007880B915
:10580000FBF778FA08490968441A08480068A0427A
:1058100001D20648046006480068A04201D204484C
:10582000046010BDCC000020C0000020C400002097
:10583000C800002070B505460026354800780128CC
:1058400000D070BD00BF00BFFAF7E2FC064600BF03
:10585000FBF7C2F900BF2C684CB900BFFBF7D6F9C3
:1058600000BF3046FAF7D8FC00BF00BFE9E729487F
:10587000844209D100BFFBF7C9F900BF3046FAF7EF
:10588000CBFC00BF00BFDCE7A06D10B1A06D401ED7
:10589000A065A06D48B100BFFBF7B8F900BF304666
:1058A000FAF7BAFC00BF00BFCBE72889022809DA63
:1058B00000BFFBF7ABF900BF3046FAF7ADFC00BF05
:1058C00000BFBEE714480078002809DD00BFFBF7E1
:1058D0009DF900BF3046FAF79FFC00BF00BFB0E75C
:1058E0002846FFF7FDFE2C68606D18B90B4800686C
:1058F000A06501E0606DA06500BFFBF787F900BF00
:105900003046FAF789FC00BF00BF00BF99E70000EE
:10591000D40000209C370020CC000020D0000020C4
:1059200009A1C161002141610849096811B900213B
:10593000816105E005490968816104490968486198
:10594000024908607047000020000000D8000020D5
:105950000021034A1160034A118001807047000052
:10596000D8000020DC0000202DE9FF5F04468846B7
:1059700091461D460020019000BF00BFFAF748FC89
:10598000019000BFFBF728F900BF04F10807388930
:10599000002857D10420012804D0022816D004285A
:1059A0003AD127E0206AFF280FD100BFFBF72EF97C
:1059B00000BF0198FAF730FC00BF00BF46F6C550A3
:1059C0002880002004B0BDE8F09F26E04FF6FF716C
:1059D000206A88420DD100BFFBF718F900BF01987B
:1059E000FAF71AFC00BF00BF46F6C5502880002019
:1059F000E8E712E0206A401C68B900BFFBF706F92F
:105A000000BF0198FAF708FC00BF00BF46F6C5507A
:105A100028800020D6E700E000BF00BF206A401CBD
:105A20002062D4F820A0C4F8249000BFFBF7EEF861
:105A300000BF0198FAF7F0FB00BF00BF00202880EC
:105A40005046BFE700BF2D480078401C2B49087026
:105A500008460078012801D1FFF7C0FE00BFFBF720
:105A6000D5F800BF0198FAF7D7FB00BF00BF00BF11
:105A700008F4007008B13E8900E00126D7F800B0B4
:105A800011E0DBF808000290DBF80400039000232B
:105A90001A46CDF8009020460299FFF732FCDDF857
:105AA0000CB0701E86B2002EEBD1D4F820A000BF3F
:105AB00000BF00BFFAF7ACFB019000BFFBF78CF80A
:105AC00000BF0E480078401E0C4908700846007858
:105AD00008B9FFF791FE00BFFBF798F800BF0198E7
